:100000000A128A11EC2FF71B062807280828132844
:100010007609F8007709F900F80A0319F90A78084F
:10002000F6007908F7000800031083120313560D39
:10003000570DDD005D08031D1E281F2828280030ED
:10004000D7000030D6000030D5000030D400892819
:100050005408D8005508D9005608DA005708DB00C4
:100060001F300310DB0CDA0CD90CD80CFF3E031D3B
:1000700031285808DC00D617FF30D405FF30D505ED
:10008000FF30D6050030D7059630DD02DD1F492848
:100090004A2862285D08803A973E03185028512864
:1000A00052281F2801300310D70CD60CD50CD40CC5
:1000B000FF3E031D53280130DD07031D6028612822
:1000C0005228792820305D02031C6728682874288C
:1000D0001F280130D8000310D40DD50DD60DD70D33
:1000E000D80B6B280130DD025D08031D78287928C4
:1000F00069285C0803197D287E288928D409D50938
:10010000D609D709D40A0319D50A0319D60A03193F
:10011000D70A0800F800780803198F289028A42827
:10012000F31F93289428A4287009FA007109FB0092
:100130007209FC007309FD00FA0A0319FB0A03198E
:10014000FC0A0319FD0AAC287308FD007208FC00C4
:100150007108FB007008FA007308720471047004DF
:10016000031DB328B428BD280030F3000030F2008E
:100170000030F1000030F0003D299630F900CB2826
:100180000130F90701300310FD0CFC0CFB0CFA0CDC
:10019000FF3E031DC328FE307D05031DD028D12856
:1001A000C028EB280130F9070130FA0700300318A6
:1001B0000130FB07003003180130FC070030031842
:1001C0000130FD0701300310FD0CFC0CFB0CFA0C98
:1001D000FF3E031DE328FF307D05031DF028F128B5
:1001E000D228FD280130F9020130F4000310FA0D85
:1001F000FB0DFC0DFD0DF40BF628FC1B002901295D
:10020000072902307902031806290729F2287918EC
:100210000A290B291329FF30FA05FF30FB057F302F
:10022000FC05FF30FD050310F90C7908F400F50119
:10023000F601F70118300310F40DF50DF60DF70D6A
:10024000FF3E031D1B297408FA047508FB04760899
:10025000FC047708FD04780803192F293029352973
:10026000F31F332934293529FD177D08F3007C0855
:10027000F2007B08F1007A08F00008005A3083167B
:100280000313D2000030D30070308F000A128A1599
:10029000B8240A128A110A128A1516240A128A111F
:1002A00083160313061086108312031386140A1292
:1002B0008A15A6250A128A11831203135F08831672
:1002C0000313D100831203135E0883160313D000B7
:1002D000003051021A3003195002031C7029712991
:1002E0009C29831203138610061401300A128A1502
:1002F000B2260A128A1180300A128A15B2260A1210
:100300008A110130F3008030F4000A128A156B2440
:100310000A128A110B3083120313E7002630E6001D
:100320005D30E500E50B9229E60B9229E70B922957
:100330008312031306105729C03083120313B10030
:100340001130B20083160313530883120313B40051
:1003500083160313520883120313B3000A128A157B
:1003600023240A128A1101300A128A15B2260A12AF
:100370008A1180300A128A15B2260A128A11C030F8
:10038000F3000030F4000A128A156B240A128A1155
:100390000B3083120313E7002630E6005D30E500E2
:1003A000E50BD029E60BD029E70BD029FF308316C7
:1003B0000313D2070318D30AFF30D307520853049C
:1003C000031DE329E4295729831203138610013002
:1003D0000A128A15B2260A128A112030F3008030E0
:1003E000F4000A128A156B240A128A11F6290A12DD
:1003F0008A11002883120313220884000008840055
:100400000A128A150A200A128A11253A031D092A9E
:100410000A2AC62A2208840001308007E801E9017F
:100420000030EC00FF30EA00FF30EB0022088400CF
:100430000008A700270884000A128A150A200A1259
:100440008A11643A0319252A262A322A27088400A9
:100450000A128A150A200A128A11693A031D312AE2
:10046000322ABF2A2308840083130008FF000230C9
:1004700080077F0884000008A800840A0008A900FB
:10048000220884002708013E80002030AC00A91B10
:100490004A2A4C2A01304D2A0030A6000130AC0215
:1004A0002C08A03E84000A30F0000030F10029083A
:1004B000F3002808F2000A128A15EC240A128A11A5
:1004C0007108F7007008F6000A128A1103200A1258
:1004D0008A117608303E831380000A30F000003025
:1004E000F100831203132908F3002808F2000A120E
:1004F0008A1543250A128A11710883120313A90071
:100500007008A800280829040319872A882A8D2A38
:100510002C08031D8C2A8D2A4E2A2C080319912A97
:10052000922AB82A26080319962A972AB82A01304F
:10053000AC022C08A03E84002D3083138000B82A22
:100540002C08A03E840083130008A400A501240801
:10055000F0002508F1002008F2002108F3000A123B
:100560008A1518260A128A11013083120313AC0768
:1005700020302C06031DBD2ABE2AA02ADF2A8312A2
:1005800003132208840001308007DF2A2208840038
:10059000000884000A128A150A200A128A11A4008F
:1005A000A5012408F0002508F1002008F200210828
:1005B000F3000A128A1518260A128A11BF2A0800A7
:1005C000831203134108CB008030CB054108C200E1
:1005D0004207D200C01FED2AEE2AEF2A5214520819
:1005E0000319F32AF42A042B520A031DF82AF92AC4
:1005F000012B0030C1000030C0000030BF000030CF
:10060000BE00C017C1010C2B0030C1000030C0007B
:100610000030BF000030BE003D088039CB063D08E9
:10062000C2004207D300BC1F162B172B182B5314E4
:10063000530803191C2B1D2B2D2B530A031D212B93
:10064000222B2A2B0030BD000030BC000030BB0044
:100650000030BA00BC17BD01352B0030BD000030A2
:10066000BC000030BB000030BA003D083C043B0435
:100670003A04031D3C2B3D2B542B0030C1000030AD
:10068000C0000030BF000030BE008030C0047F30AA
:10069000C1044B08C1044108BD004008BC003F082C
:1006A000BB003E08BA00A92C5208031D582B592B39
:1006B000622B0030BD000030BC000030BB000030B9
:1006C000BA00A92C5208C200C3014308C500530850
:1006D0004202C400031CC50344087F3ECC00450809
:1006E0000318013E003ECD004108CA004008C90081
:1006F0003F08C8003E08C7000030C1000030C000FD
:100700000030BF000030BE000030D1000030D0000B
:100710000030CF000030CE00D301D62B5308031990
:10072000922B932BB32B0130C2000310C70DC80DC1
:10073000C90DCA0DC20B952B0130C2000310BE0DAE
:10074000BF0DC00DC10DC20B9E2BD11FA82BA92B15
:10075000AA2B3E140130C2000310CE0DCF0DD00DD8
:10076000D10DC20BAC2B3D084A02031DC12B3C0826
:100770004902031DC12B3B084802031DC12B3A0847
:100780004702031CC42BC52BD42B51173A08C702B0
:100790003B08031C3B0FC8023C08031C3C0FC9026A
:1007A0003D08031C3D0FCA020130D3071A30530223
:1007B000031CDB2BDC2B8E2B4A084904480447041E
:1007C0000319E32BE42B032C4E14032C0130C2003D
:1007D0000310BE0DBF0DC00DC10DC20BE82BD11F04
:1007E000F22BF32BF42B3E140130C2000310CE0D7C
:1007F000CF0DD00DD10DC20BF62BFF30CC07031857
:10080000CD0AFF30CD07C01F062C072CE62BD301E5
:10081000D11F0B2C0C2C282CFF304E05C200FF30B2
:100820004F05C300FF305005C4007F305105C5009F
:10083000450844044304420403191F2C202C232C94
:100840000130D300282C3E1C262C272C282C202CB1
:10085000530803192C2C2D2C5E2C0130BE070030C0
:1008600003180130BF07003003180130C007003003
:1008700003180130C107411C3E2C3F2C5E2C3E0862
:10088000C2003F08C3004008C4004108C500013051
:10089000C600450DC50CC40CC30CC20CC60B492CBC
:1008A0004508C1004408C0004308BF004208BE001C
:1008B0000130CC070318CD0A0030CD074D08803A2F
:1008C000FF0080307F02031D672CFF304C02031CA9
:1008D0006A2C6B2C792CFF3083120313CC00003070
:1008E000CD000030C1000030C0000030BF0000303B
:1008F000BE00831203134D08803AFF0080307F0250
:10090000031D842C01304C020318872C882C952C55
:1009100083120313CC01CD010030C1000030C000B0
:100920000030BF000030BE00CB01831203134C081F
:10093000D200521C9C2C9D2C9F2CC017A12C7F30C8
:10094000C0055208C2000310420CC1004B08C1048C
:100950004B2B0800831203132308AD008030AD0534
:100960002308A8002807B300A21FB72CB82CB92C65
:10097000331433080319BD2CBE2CCD2C330A031DB0
:10098000C22CC32CCB2C0030A3000030A2000030BE
:10099000A1000030A000A217D52C0030A300003029
:1009A000A2000030A1000030A00027088039AD0669
:1009B0002708A8002807B200A61FDF2CE02CE12C96
:1009C000321432080319E52CE62CF52C320A031DEB
:1009D000EA2CEB2CF32C0030A7000030A6000030EE
:1009E000A5000030A400A617FD2C0030A7000030A1
:1009F000A6000030A5000030A40032080319012D24
:100A0000022D072D3308031D062D072D102D003054
:100A1000A3000030A2000030A1000030A000EB2FA6
:100A20002008F00026080A128A1591240A128A1159
:100A3000710883120313B9007008B8003808A800C1
:100A4000A901AA01AB012B08B1002A08B0002908AE
:100A5000AF002808AE003908A800A901AA01AB011F
:100A60002B08B7002A08B6002908B5002808B400EA
:100A70002108F00025080A128A1591240A128A1109
:100A8000710883120313B9007008B8003808A80071
:100A9000A901AA01AB012808AE0729080311031810
:100AA000013E0319542DAF072A0803110318013E14
:100AB00003195B2DB0072B0803110318013E03191E
:100AC000622DB1073908A800A901AA01AB012808C5
:100AD000B407290803110318013E0319702DB50747
:100AE0002A0803110318013E0319772DB6072B08B6
:100AF00003110318013E03197E2DB7072208F000E9
:100B000024080A128A1591240A128A117108831284
:100B10000313B9007008B8003808A800A901AA0199
:100B2000AB012808AE07290803110318013E031979
:100B30009A2DAF072A0803110318013E0319A12DAE
:100B4000B0072B0803110318013E0319A82DB107A4
:100B50003908A800A901AA01AB012808B40729088F
:100B600003110318013E0319B62DB5072A08031116
:100B70000318013E0319BD2DB6072B0803110318F6
:100B8000013E0319C42DB7070830A8000310AE0DAD
:100B9000AF0DB00DB10DA80BC62D2108F000240833
:100BA0000A128A1591240A128A11710883120313FA
:100BB000B9007008B8003808A8003908A900AA01CF
:100BC000AB012808AE07290803110318013E0319D9
:100BD000EA2DAF072A0803110318013E0319F12D6E
:100BE000B0072B0803110318013E0319F82DB107B4
:100BF0002008F00025080A128A1591240A128A1189
:100C0000710883120313B9007008B8003808A800EF
:100C10003908A900AA01AB012808AE072908031169
:100C20000318013E0319152EAF072A0803110318F4
:100C3000013E03191C2EB0072B0803110318013EB7
:100C40000319232EB1070830A8000310AE0DAF0D15
:100C5000B00DB10DA80B252E2008F00024080A12B3
:100C60008A1591240A128A11710883120313B9009C
:100C70007008B8003808A8003908A900AA01AB011B
:100C80002808AE07290803110318013E0319492E4D
:100C9000AF072A0803110318013E0319502EB007AD
:100CA0002B0803110318013E0319572EB107210821
:100CB000F00026080A128A1591240A128A11710876
:100CC00083120313B9007008B8003808A800390867
:100CD000A900AA01AB012808B407290803110318C9
:100CE000013E0319742EB5072A0803110318013EAB
:100CF00003197B2EB6072B0803110318013E0319B5
:100D0000822EB7072208F00025080A128A159124BE
:100D10000A128A11710883120313B9007008B8000F
:100D20003808A8003908A900AA01AB012808B407AF
:100D3000290803110318013E03199F2EB5072A083D
:100D400003110318013E0319A62EB6072B08031141
:100D50000318013E0319AD2EB7072208F00026083C
:100D60000A128A1591240A128A1171088312031338
:100D7000B9007008B8003808A8003908A900AA010D
:100D8000AB0108300310A80DA90DAA0DAB0DFF3E55
:100D9000031DC22E2808B407290803110318013EB9
:100DA0000319D32EB5072A0803110318013E0319AE
:100DB000DA2EB6072B0803110318013E0319E12EA2
:100DC000B7072E08A8002F08A9003008AA0031088C
:100DD000AB0018300310AB0CAA0CA90CA80CFF3EFA
:100DE000031DEA2E2808B407290803110318013E41
:100DF0000319FB2EB5072A0803110318013E031936
:100E0000022FB6072B0803110318013E0319092FFF
:100E1000B7070830A8000310AE0DAF0DB00DB10D2F
:100E2000A80B0B2F33083207A800A901A90D280829
:100E3000823EB80029080318013EFF3EB9003D2F4D
:100E40000130A8000310B40DB50DB60DB70DA80BF9
:100E5000222FB11F2C2F2D2F2E2F34140130A8003C
:100E60000310AE0DAF0DB00DB10DA80B302FFF303C
:100E7000B8070318B90AFF30B907B61F402F412F32
:100E8000202FB201B11F452F462F622FFF302E05B4
:100E9000A800FF302F05A900FF303005AA007F30E1
:100EA0003105AB002B082A04290428040319592F03
:100EB0005A2F5D2F0130B200622F341C602F612F3A
:100EC000622F5A2F32080319662F672F982F01308F
:100ED000B407003003180130B507003003180130A3
:100EE000B607003003180130B707371C782F792F69
:100EF000982F3408A8003508A9003608AA0037083A
:100F0000AB000130AC002B0DAB0CAA0CA90CA80C4B
:100F1000AC0B832F2B08B7002A08B6002908B500B0
:100F20002808B4000130B8070318B90A0030B9071F
:100F30003908803AFF0080307F02031DA12FFF3067
:100F40003802031CA42FA52FB02F7F308312031368
:100F5000B7008030B6000030B5000030B400E12F9B
:100F6000831203133908803AFF0080307F02031D8B
:100F7000BB2F013038020318BE2FBF2FCB2F0030FC
:100F800083120313B7000030B6000030B500003004
:100F9000B400AD01E12F831203133808B300FF3012
:100FA000B405FF30B5057F30B6050030B705331CFA
:100FB000DA2FDB2FDC2FB6173308A8000310280C1C
:100FC000B7002D08B7043708A3003608A20035087B
:100FD000A1003408A000080083120313E801E9010E
:100FE000EA01EB01EC018313A0308400C0300A1247
:100FF0008A151B240A128A1183010A128A113E29BA
:10100000FF1B0A2883137F1883170008840A03191B
:10101000FF0A080008308A000408840A82070034A6
:101020005734613474346534723420344C3465344C
:10103000763465346C3420344C346F347734003477
:101040004F3466346634203469346E343A34203494
:1010500025346434203473346534633400344D34BF
:101060006F3474346F34723420344F344634463421
:0210700000344A
:10182A000800831603130710871408006400800158
:10183A00840A04060319003404061C2C333083126C
:10184A000313B6003108B7000030B800B901BA0175
:10185A00C001C1013730AD000030AE003208AF0020
:10186A003630B0000A128A1546240A128A158312E3
:10187A00031339083107B500350884008313800142
:10188A000800831203132F08FD005A2C8312031336
:10189A002D08A0002E08A1007D30A2003008A30068
:1018AA000A128A11FA210A128A157D0884000A127C
:1018BA008A150A200A128A15003A031D652C662C1D
:1018CA004B2C83120313AD01AE010800802C74085F
:1018DA00FF00730884000A128A1500200A128A156A
:1018EA000A128A1559270A128A150130F3070318B2
:1018FA00F40A0030F407740883120313FF00730814
:10190A0084000A128A1500200A128A15003A031D59
:10191A008F2C902C6C2C0800F800F401F50170084B
:10192A00F200F3017208F6007308F700781C9E2C87
:10193A009F2CA52C7608F4070318F50A7708F507F3
:10194A0001300310F60DF70DFF3E031DA62C031000
:10195A00F80C7808031DB22CB32C9B2C7508F100E7
:10196A007408F00008008316031388013430F40069
:10197A00F130F300F30BBF2CF40BBF2CC42C023054
:10198A000A128A15B2260A128A1528300A128A15EC
:10199A00B2260A128A150C300A128A15B2260A12BF
:1019AA008A1506300A128A15B2260A128A150130D9
:1019BA000A128A15B2260A128A150630F400303045
:1019CA00F300F30BE62CF40BE62C00000800F501FB
:1019DA00F31FF02CF12CF82CF209F309F20A03197F
:1019EA00F30A0130F500F11FFB2CFC2C012DF00944
:1019FA00F109F00A0319F10A700871040319062D96
:101A0A00072D342D0130F400132D01300310F00D91
:101A1A00F10DFF3E031D0B2D0130F407F11F162DAA
:101A2A00172D0A2D71087302031D1D2D70087202ED
:101A3A00031C202D212D272D7008F2027108031C8A
:101A4A00F303F30201300310F10CF00CFF3E031D07
:101A5A00282D0130F402031D332D342D172D75085E
:101A6A000319382D392D3E2DF209F309F20A03190B
:101A7A00F30A7308F1007208F0000800F501F11F7B
:101A8A00472D482D4F2DF009F109F00A0319F10AE3
:101A9A000130F500F31F522D532D5A2DF209F30987
:101AAA00F20A0319F30A0130F506F601F701700884
:101ABA0071040319612D622D972D0130F4006E2DEA
:101ACA0001300310F00DF10DFF3E031D662D0130AC
:101ADA00F407F11F712D722D652D01300310F60DDB
:101AEA00F70DFF3E031D732D71087302031D7F2D31
:101AFA0070087202031C822D832D8A2D7008F2024F
:101B0A007108031CF303F302761401300310F10C7D
:101B1A00F00CFF3E031D8B2D0130F402031D962DA0
:101B2A00972D722D750803199B2D9C2DA12DF60951
:101B3A00F709F60A0319F70A7708F1007608F000A0
:101B4A000800831203130714053083120313E000FD
:101B5A00E00BAD2DB02D831203130710871CB62D91
:101B6A00B72DB32D8F018E01013090008718BE2D3D
:101B7A00BF2DBB2D90010F08E2000E08E10061089D
:101B8A00F0006208F100F201F30100300A128A1132
:101B9A008A200A128A15730883120313A70072088F
:101BAA00A6007108A5007008A4003D30A3000C30FF
:101BBA00A2007E30A1002830A0000A128A11AA24AD
:101BCA000A128A15831203132308C1002208C000CF
:101BDA002108BF002008BE004030BD000030BC0014
:101BEA000030BB000030BA000A128A11E0220A1241
:101BFA008A15831203133D08D7003C08D6003B0818
:101C0A00D5003A08D4000A128A1114200A128A1539
:101C1A00831203135508E4005408E3006408DF0044
:101C2A006308DE0008007208730403191D2E1E2EB5
:101C3A00242E72087304031D232E242E2B2E7008C3
:101C4A000A128A1515240A128A15B12E7208093E3B
:101C5A00F40073080318013E003EF500740884007E
:101C6A008317751C83130008F600840A0008F7001E
:101C7A00760877040319422E432E752E7208093E00
:101C8A00F40073080318013E003EF500740884004E
:101C9A008317751C83130008F600840A0008F700EE
:101CAA007208023EF80073080318013E003EF9006C
:101CBA00780884008317791C83130008FA00840AC1
:101CCA000008FB007B08803AFC007708803A7C0217
:101CDA00031D712E76087A020318742E752EB12E02
:101CEA00720884008317731C83130008F400840AA3
:101CFA000008F5007208023EF60073080318013E58
:101D0A00003EF700760884008317771C83130008C7
:101D1A007407F9007508F8000318F80A801F962E50
:101D2A00F8037808FA007908840083177A1C831369
:101D3A00700880007208023EF40073080318013E1E
:101D4A00003EF500740884008317751C8313013064
:101D5A008007840A0318800A0800F200831203131A
:101D6A0008107208F00004300310F00CFF3E031D47
:101D7A00B92E7018C12EC52E831203130815C82E4A
:101D8A008312031308117208F00005300310F00CD7
:101D9A00FF3E031DCB2E7018D32ED72E83120313AA
:101DAA008815DA2E8312031388117208F0000630A0
:101DBA000310F00CFF3E031DDD2E7018E52EE92EF0
:101DCA00831203130816EC2E8312031308127208E7
:101DDA00F00007300310F00CFF3E031DEF2E7018C1
:101DEA00F72EFB2E831203138816FE2E831203137B
:101DFA00881288140630F1003030F000F00B032FFF
:101E0A00F10B032F000083120313881072180E2F90
:101E1A00122F831203130815152F831203130811A7
:101E2A007208F00001300310F00CFF3E031D182F5A
:101E3A007018202F242F831203138815272F83123B
:101E4A00031388117208F00002300310F00CFF3EF1
:101E5A00031D2A2F7018322F362F831203130816E8
:101E6A00392F8312031308127208F000033003108B
:101E7A00F00CFF3E031D3C2F7018442F482F83128D
:101E8A00031388164B2F8312031388128814063003
:101E9A00F1003030F000F00B502FF10B502F000002
:101EAA008312031388100800F20083120313081424
:101EBA007208F00004300310F00CFF3E031D602F7F
:101ECA007018682F6C2F8312031308156F2F831253
:101EDA00031308117208F00005300310F00CFF3EDE
:101EEA00031D722F70187A2F7E2F83120313881501
:101EFA00812F8312031388117208F0000630031031
:101F0A00F00CFF3E031D842F70188C2F902F831224
:101F1A0003130816932F8312031308127208F00092
:101F2A0007300310F00CFF3E031D962F70189E2FEA
:101F3A00A22F831203138816A52F83120313881264
:101F4A0088140630F1003030F000F00BAA2FF10BA4
:101F5A00AA2F00008312031388107218B52FB92F05
:101F6A00831203130815BC2F831203130811720876
:101F7A00F00001300310F00CFF3E031DBF2F701854
:101F8A00C72FCB2F831203138815CE2F8312031367
:101F9A0088117208F00002300310F00CFF3E031D96
:101FAA00D12F7018D92FDD2F831203130816E02FB3
:101FBA008312031308127208F00003300310F00CA6
:101FCA00FF3E031DE32F7018EB2FEF2F831203132D
:101FDA008816F22F83120313881288140630F10030
:101FEA003030F000F00BF72FF10BF72F00008312BF
:061FFA000313881008002B
:02400E00F42F8D
:00000001FF
